{
  "contractName": "Owned",
  "abi": [
    {
      "inputs": [],
      "stateMutability": "nonpayable",
      "type": "constructor"
    },
    {
      "inputs": [],
      "name": "ownerAddr",
      "outputs": [
        {
          "internalType": "address",
          "name": "",
          "type": "address"
        }
      ],
      "stateMutability": "view",
      "type": "function"
    },
    {
      "inputs": [
        {
          "internalType": "address",
          "name": "_newOwner",
          "type": "address"
        }
      ],
      "name": "transferOwnership",
      "outputs": [],
      "stateMutability": "nonpayable",
      "type": "function"
    }
  ],
  "bytecode": "0x608060405234801561001057600080fd5b50336000806101000a81548173ffffffffffffffffffffffffffffffffffffffff021916908373ffffffffffffffffffffffffffffffffffffffff16021790555061025e806100606000396000f3fe608060405234801561001057600080fd5b50600436106100365760003560e01c80639c675eaa1461003b578063f2fde38b14610059575b600080fd5b610043610075565b60405161005091906101af565b60405180910390f35b610073600480360381019061006e91906101fb565b610099565b005b60008054906101000a900473ffffffffffffffffffffffffffffffffffffffff1681565b60008054906101000a900473ffffffffffffffffffffffffffffffffffffffff1673ffffffffffffffffffffffffffffffffffffffff163373ffffffffffffffffffffffffffffffffffffffff16146100f157600080fd5b600073ffffffffffffffffffffffffffffffffffffffff168173ffffffffffffffffffffffffffffffffffffffff16141561012b57600080fd5b806000806101000a81548173ffffffffffffffffffffffffffffffffffffffff021916908373ffffffffffffffffffffffffffffffffffffffff16021790555050565b600073ffffffffffffffffffffffffffffffffffffffff82169050919050565b60006101998261016e565b9050919050565b6101a98161018e565b82525050565b60006020820190506101c460008301846101a0565b92915050565b600080fd5b6101d88161018e565b81146101e357600080fd5b50565b6000813590506101f5816101cf565b92915050565b600060208284031215610211576102106101ca565b5b600061021f848285016101e6565b9150509291505056fea2646970667358221220d491cb56d2bdc9abc85e055de4575a680d51842b02a5642e0016cdcd53949ce264736f6c634300080a0033",
  "immutableReferences": {},
  "source": "// SPDX-License\r\npragma solidity >=0.4.22 <0.9.0;\r\n\r\ncontract Owned {\r\n  address public ownerAddr;\r\n\r\n  constructor () public {\r\n    ownerAddr = msg.sender;\r\n  }\r\n  // custom modifier onlyOwner can be used to restrict calls to only the owner\r\n  modifier onlyOwner {\r\n    require(msg.sender == ownerAddr);\r\n    _;\r\n  }\r\n  // function to transfer ownership\r\n  function transferOwnership(address _newOwner) public onlyOwner{\r\n    // only currenr owner can set new ownerAddr\r\n    // require(msg.sender == ownerAddr);\r\n    // the new ownerAddr must be a valid address && cannot be the zero address\r\n    require(_newOwner != address(0));\r\n    ownerAddr = _newOwner;\r\n  }\r\n}",
  "sourcePath": "C:\\Users\\tawseef.bhat\\Desktop\\web3\\tweether\\contracts\\helpers\\Owned.sol",
  "compiler": {
    "name": "solc",
    "version": "0.8.10+commit.fc410830.Emscripten.clang"
  },
  "schemaVersion": "3.4.3",
  "updatedAt": "2021-12-25T14:06:41.942Z",
  "devdoc": {
    "kind": "dev",
    "methods": {},
    "version": 1
  },
  "userdoc": {
    "kind": "user",
    "methods": {},
    "version": 1
  }
}