{
  "contractName": "TweetStorage",
  "abi": [
    {
      "inputs": [],
      "name": "controllerAddr",
      "outputs": [
        {
          "internalType": "address",
          "name": "",
          "type": "address"
        }
      ],
      "stateMutability": "view",
      "type": "function",
      "constant": true
    },
    {
      "inputs": [],
      "name": "ownerAddr",
      "outputs": [
        {
          "internalType": "address",
          "name": "",
          "type": "address"
        }
      ],
      "stateMutability": "view",
      "type": "function",
      "constant": true
    },
    {
      "inputs": [
        {
          "internalType": "address",
          "name": "_controllerAddr",
          "type": "address"
        }
      ],
      "name": "setControllerAddr",
      "outputs": [],
      "stateMutability": "nonpayable",
      "type": "function"
    },
    {
      "inputs": [
        {
          "internalType": "address",
          "name": "_newOwner",
          "type": "address"
        }
      ],
      "name": "transferOwnership",
      "outputs": [],
      "stateMutability": "nonpayable",
      "type": "function"
    },
    {
      "inputs": [
        {
          "internalType": "uint256",
          "name": "",
          "type": "uint256"
        }
      ],
      "name": "tweets",
      "outputs": [
        {
          "internalType": "uint256",
          "name": "id",
          "type": "uint256"
        },
        {
          "internalType": "string",
          "name": "content",
          "type": "string"
        },
        {
          "internalType": "uint256",
          "name": "userId",
          "type": "uint256"
        },
        {
          "internalType": "uint256",
          "name": "timestamp",
          "type": "uint256"
        }
      ],
      "stateMutability": "view",
      "type": "function",
      "constant": true
    },
    {
      "inputs": [
        {
          "internalType": "uint256",
          "name": "_userId",
          "type": "uint256"
        },
        {
          "internalType": "string",
          "name": "_text",
          "type": "string"
        }
      ],
      "name": "createTweet",
      "outputs": [
        {
          "internalType": "uint256",
          "name": "",
          "type": "uint256"
        }
      ],
      "stateMutability": "nonpayable",
      "type": "function"
    },
    {
      "inputs": [
        {
          "internalType": "uint256",
          "name": "_userId",
          "type": "uint256"
        }
      ],
      "name": "getTweetIdsFromUser",
      "outputs": [
        {
          "internalType": "uint256[]",
          "name": "",
          "type": "uint256[]"
        }
      ],
      "stateMutability": "view",
      "type": "function",
      "constant": true
    }
  ],
  "bytecode": "0x6080604052600060045534801561001557600080fd5b50336000806101000a81548173ffffffffffffffffffffffffffffffffffffffff021916908373ffffffffffffffffffffffffffffffffffffffff160217905550610bf6806100656000396000f3fe608060405234801561001057600080fd5b506004361061007d5760003560e01c80639c675eaa1161005b5780639c675eaa146100fe578063e8d857b01461011c578063ee255c571461014f578063f2fde38b1461016d5761007d565b8063317aae1b146100825780636981fa7d146100b25780637cc82f20146100ce575b600080fd5b61009c60048036038101906100979190610685565b610189565b6040516100a99190610770565b60405180910390f35b6100cc60048036038101906100c791906107f0565b6101f4565b005b6100e860048036038101906100e39190610963565b610290565b6040516100f591906109ce565b60405180910390f35b6101066103c1565b60405161011391906109f8565b60405180910390f35b61013660048036038101906101319190610685565b6103e5565b6040516101469493929190610a9b565b60405180910390f35b61015761049d565b60405161016491906109f8565b60405180910390f35b610187600480360381019061018291906107f0565b6104c3565b005b6060600360008381526020019081526020016000208054806020026020016040519081016040528092919081815260200182805480156101e857602002820191906000526020600020905b8154815260200190600101908083116101d4575b50505050509050919050565b60008054906101000a900473ffffffffffffffffffffffffffffffffffffffff1673ffffffffffffffffffffffffffffffffffffffff163373ffffffffffffffffffffffffffffffffffffffff161461024c57600080fd5b80600160006101000a81548173ffffffffffffffffffffffffffffffffffffffff021916908373ffffffffffffffffffffffffffffffffffffffff16021790555050565b6000600160009054906101000a900473ffffffffffffffffffffffffffffffffffffffff1673ffffffffffffffffffffffffffffffffffffffff163373ffffffffffffffffffffffffffffffffffffffff16146102ec57600080fd5b600460008154809291906102ff90610b16565b91905055506040518060800160405280600454815260200183815260200184815260200142815250600260006004548152602001908152602001600020600082015181600001556020820151816001019080519060200190610362929190610598565b506040820151816002015560608201518160030155905050600360008481526020019081526020016000206004549080600181540180825580915050600190039060005260206000200160009091909190915055600454905092915050565b60008054906101000a900473ffffffffffffffffffffffffffffffffffffffff1681565b600260205280600052604060002060009150905080600001549080600101805461040e90610b8e565b80601f016020809104026020016040519081016040528092919081815260200182805461043a90610b8e565b80156104875780601f1061045c57610100808354040283529160200191610487565b820191906000526020600020905b81548152906001019060200180831161046a57829003601f168201915b5050505050908060020154908060030154905084565b600160009054906101000a900473ffffffffffffffffffffffffffffffffffffffff1681565b60008054906101000a900473ffffffffffffffffffffffffffffffffffffffff1673ffffffffffffffffffffffffffffffffffffffff163373ffffffffffffffffffffffffffffffffffffffff161461051b57600080fd5b600073ffffffffffffffffffffffffffffffffffffffff168173ffffffffffffffffffffffffffffffffffffffff16141561055557600080fd5b806000806101000a81548173ffffffffffffffffffffffffffffffffffffffff021916908373ffffffffffffffffffffffffffffffffffffffff16021790555050565b8280546105a490610b8e565b90600052602060002090601f0160209004810192826105c6576000855561060d565b82601f106105df57805160ff191683800117855561060d565b8280016001018555821561060d579182015b8281111561060c5782518255916020019190600101906105f1565b5b50905061061a919061061e565b5090565b5b8082111561063757600081600090555060010161061f565b5090565b6000604051905090565b600080fd5b600080fd5b6000819050919050565b6106628161064f565b811461066d57600080fd5b50565b60008135905061067f81610659565b92915050565b60006020828403121561069b5761069a610645565b5b60006106a984828501610670565b91505092915050565b600081519050919050565b600082825260208201905092915050565b6000819050602082019050919050565b6106e78161064f565b82525050565b60006106f983836106de565b60208301905092915050565b6000602082019050919050565b600061071d826106b2565b61072781856106bd565b9350610732836106ce565b8060005b8381101561076357815161074a88826106ed565b975061075583610705565b925050600181019050610736565b5085935050505092915050565b6000602082019050818103600083015261078a8184610712565b905092915050565b600073ffffffffffffffffffffffffffffffffffffffff82169050919050565b60006107bd82610792565b9050919050565b6107cd816107b2565b81146107d857600080fd5b50565b6000813590506107ea816107c4565b92915050565b60006020828403121561080657610805610645565b5b6000610814848285016107db565b91505092915050565b600080fd5b600080fd5b6000601f19601f8301169050919050565b7f4e487b7100000000000000000000000000000000000000000000000000000000600052604160045260246000fd5b61087082610827565b810181811067ffffffffffffffff8211171561088f5761088e610838565b5b80604052505050565b60006108a261063b565b90506108ae8282610867565b919050565b600067ffffffffffffffff8211156108ce576108cd610838565b5b6108d782610827565b9050602081019050919050565b82818337600083830152505050565b6000610906610901846108b3565b610898565b90508281526020810184848401111561092257610921610822565b5b61092d8482856108e4565b509392505050565b600082601f83011261094a5761094961081d565b5b813561095a8482602086016108f3565b91505092915050565b6000806040838503121561097a57610979610645565b5b600061098885828601610670565b925050602083013567ffffffffffffffff8111156109a9576109a861064a565b5b6109b585828601610935565b9150509250929050565b6109c88161064f565b82525050565b60006020820190506109e360008301846109bf565b92915050565b6109f2816107b2565b82525050565b6000602082019050610a0d60008301846109e9565b92915050565b600081519050919050565b600082825260208201905092915050565b60005b83811015610a4d578082015181840152602081019050610a32565b83811115610a5c576000848401525b50505050565b6000610a6d82610a13565b610a778185610a1e565b9350610a87818560208601610a2f565b610a9081610827565b840191505092915050565b6000608082019050610ab060008301876109bf565b8181036020830152610ac28186610a62565b9050610ad160408301856109bf565b610ade60608301846109bf565b95945050505050565b7f4e487b7100000000000000000000000000000000000000000000000000000000600052601160045260246000fd5b6000610b218261064f565b91507fffffffffffffffffffffffffffffffffffffffffffffffffffffffffffffffff821415610b5457610b53610ae7565b5b600182019050919050565b7f4e487b7100000000000000000000000000000000000000000000000000000000600052602260045260246000fd5b60006002820490506001821680610ba657607f821691505b60208210811415610bba57610bb9610b5f565b5b5091905056fea26469706673582212201055d1dbb4fe80965010a42ad0ad1e154c8399ffa3696a4385106db09e6a714164736f6c634300080a0033",
  "immutableReferences": {},
  "source": "// SPDX-License-Identifier: MIT\r\npragma solidity >=0.4.22 <0.9.0;\r\n\r\nimport \"../helpers/BaseStorage.sol\";\r\n\r\ncontract TweetStorage is BaseStorage {\r\n    struct Tweet {\r\n        uint id;\r\n        string content;\r\n        uint userId;\r\n        uint timestamp;\r\n    }\r\n    mapping(uint => Tweet) public tweets;\r\n    mapping (uint => uint[]) userTweetIds;\r\n     // commenting getTweet function, as public in  tweets does same\r\n    // function getTweet(uint id) public view returns (string) {\r\n    //     return tweets[id].content;\r\n    // }\r\n    uint latestTweetId = 0;\r\n    function createTweet(uint _userId, string memory _text) public onlyController returns (uint) {\r\n      latestTweetId++;\r\n      tweets[latestTweetId] = Tweet(latestTweetId, _text, _userId, block.timestamp);\r\n      userTweetIds[_userId].push(latestTweetId); \r\n      return latestTweetId;\r\n    }\r\n    function getTweetIdsFromUser(uint _userId) view public returns( uint[] memory ) {\r\n    return userTweetIds[_userId];\r\n  }\r\n}",
  "sourcePath": "C:\\Users\\tawseef.bhat\\Desktop\\web3\\tweether\\contracts\\tweets\\TweetStorage.sol",
  "compiler": {
    "name": "solc",
    "version": "0.8.10+commit.fc410830.Emscripten.clang"
  },
  "schemaVersion": "3.4.3",
  "updatedAt": "2021-12-25T14:06:54.481Z",
  "networkType": "ethereum",
  "devdoc": {
    "kind": "dev",
    "methods": {},
    "version": 1
  },
  "userdoc": {
    "kind": "user",
    "methods": {},
    "version": 1
  }
}