{
  "contractName": "TweetStorage",
  "abi": [
    {
      "inputs": [],
      "name": "controllerAddr",
      "outputs": [
        {
          "internalType": "address",
          "name": "",
          "type": "address"
        }
      ],
      "stateMutability": "view",
      "type": "function",
      "constant": true
    },
    {
      "inputs": [],
      "name": "ownerAddr",
      "outputs": [
        {
          "internalType": "address",
          "name": "",
          "type": "address"
        }
      ],
      "stateMutability": "view",
      "type": "function",
      "constant": true
    },
    {
      "inputs": [
        {
          "internalType": "address",
          "name": "_controllerAddr",
          "type": "address"
        }
      ],
      "name": "setControllerAddr",
      "outputs": [],
      "stateMutability": "nonpayable",
      "type": "function"
    },
    {
      "inputs": [
        {
          "internalType": "address",
          "name": "_newOwner",
          "type": "address"
        }
      ],
      "name": "transferOwnership",
      "outputs": [],
      "stateMutability": "nonpayable",
      "type": "function"
    },
    {
      "inputs": [
        {
          "internalType": "uint256",
          "name": "",
          "type": "uint256"
        }
      ],
      "name": "tweets",
      "outputs": [
        {
          "internalType": "uint256",
          "name": "id",
          "type": "uint256"
        },
        {
          "internalType": "string",
          "name": "content",
          "type": "string"
        },
        {
          "internalType": "uint256",
          "name": "userId",
          "type": "uint256"
        },
        {
          "internalType": "uint256",
          "name": "timestamp",
          "type": "uint256"
        }
      ],
      "stateMutability": "view",
      "type": "function",
      "constant": true
    },
    {
      "inputs": [
        {
          "internalType": "uint256",
          "name": "_userId",
          "type": "uint256"
        },
        {
          "internalType": "string",
          "name": "_text",
          "type": "string"
        }
      ],
      "name": "createTweet",
      "outputs": [
        {
          "internalType": "uint256",
          "name": "",
          "type": "uint256"
        }
      ],
      "stateMutability": "nonpayable",
      "type": "function"
    }
  ],
  "bytecode": "0x6080604052600060035534801561001557600080fd5b50336000806101000a81548173ffffffffffffffffffffffffffffffffffffffff021916908373ffffffffffffffffffffffffffffffffffffffff160217905550610a24806100656000396000f3fe608060405234801561001057600080fd5b50600436106100625760003560e01c80636981fa7d146100675780637cc82f20146100835780639c675eaa146100b3578063e8d857b0146100d1578063ee255c5714610104578063f2fde38b14610122575b600080fd5b610081600480360381019061007c91906105bb565b61013e565b005b61009d60048036038101906100989190610764565b6101da565b6040516100aa91906107cf565b60405180910390f35b6100bb6102cf565b6040516100c891906107f9565b60405180910390f35b6100eb60048036038101906100e69190610814565b6102f3565b6040516100fb94939291906108c9565b60405180910390f35b61010c6103ab565b60405161011991906107f9565b60405180910390f35b61013c600480360381019061013791906105bb565b6103d1565b005b60008054906101000a900473ffffffffffffffffffffffffffffffffffffffff1673ffffffffffffffffffffffffffffffffffffffff163373ffffffffffffffffffffffffffffffffffffffff161461019657600080fd5b80600160006101000a81548173ffffffffffffffffffffffffffffffffffffffff021916908373ffffffffffffffffffffffffffffffffffffffff16021790555050565b6000600160009054906101000a900473ffffffffffffffffffffffffffffffffffffffff1673ffffffffffffffffffffffffffffffffffffffff163373ffffffffffffffffffffffffffffffffffffffff161461023657600080fd5b6003600081548092919061024990610944565b919050555060405180608001604052806003548152602001838152602001848152602001428152506002600060035481526020019081526020016000206000820151816000015560208201518160010190805190602001906102ac9291906104a6565b506040820151816002015560608201518160030155905050600354905092915050565b60008054906101000a900473ffffffffffffffffffffffffffffffffffffffff1681565b600260205280600052604060002060009150905080600001549080600101805461031c906109bc565b80601f0160208091040260200160405190810160405280929190818152602001828054610348906109bc565b80156103955780601f1061036a57610100808354040283529160200191610395565b820191906000526020600020905b81548152906001019060200180831161037857829003601f168201915b5050505050908060020154908060030154905084565b600160009054906101000a900473ffffffffffffffffffffffffffffffffffffffff1681565b60008054906101000a900473ffffffffffffffffffffffffffffffffffffffff1673ffffffffffffffffffffffffffffffffffffffff163373ffffffffffffffffffffffffffffffffffffffff161461042957600080fd5b600073ffffffffffffffffffffffffffffffffffffffff168173ffffffffffffffffffffffffffffffffffffffff16141561046357600080fd5b806000806101000a81548173ffffffffffffffffffffffffffffffffffffffff021916908373ffffffffffffffffffffffffffffffffffffffff16021790555050565b8280546104b2906109bc565b90600052602060002090601f0160209004810192826104d4576000855561051b565b82601f106104ed57805160ff191683800117855561051b565b8280016001018555821561051b579182015b8281111561051a5782518255916020019190600101906104ff565b5b509050610528919061052c565b5090565b5b8082111561054557600081600090555060010161052d565b5090565b6000604051905090565b600080fd5b600080fd5b600073ffffffffffffffffffffffffffffffffffffffff82169050919050565b60006105888261055d565b9050919050565b6105988161057d565b81146105a357600080fd5b50565b6000813590506105b58161058f565b92915050565b6000602082840312156105d1576105d0610553565b5b60006105df848285016105a6565b91505092915050565b6000819050919050565b6105fb816105e8565b811461060657600080fd5b50565b600081359050610618816105f2565b92915050565b600080fd5b600080fd5b6000601f19601f8301169050919050565b7f4e487b7100000000000000000000000000000000000000000000000000000000600052604160045260246000fd5b61067182610628565b810181811067ffffffffffffffff821117156106905761068f610639565b5b80604052505050565b60006106a3610549565b90506106af8282610668565b919050565b600067ffffffffffffffff8211156106cf576106ce610639565b5b6106d882610628565b9050602081019050919050565b82818337600083830152505050565b6000610707610702846106b4565b610699565b90508281526020810184848401111561072357610722610623565b5b61072e8482856106e5565b509392505050565b600082601f83011261074b5761074a61061e565b5b813561075b8482602086016106f4565b91505092915050565b6000806040838503121561077b5761077a610553565b5b600061078985828601610609565b925050602083013567ffffffffffffffff8111156107aa576107a9610558565b5b6107b685828601610736565b9150509250929050565b6107c9816105e8565b82525050565b60006020820190506107e460008301846107c0565b92915050565b6107f38161057d565b82525050565b600060208201905061080e60008301846107ea565b92915050565b60006020828403121561082a57610829610553565b5b600061083884828501610609565b91505092915050565b600081519050919050565b600082825260208201905092915050565b60005b8381101561087b578082015181840152602081019050610860565b8381111561088a576000848401525b50505050565b600061089b82610841565b6108a5818561084c565b93506108b581856020860161085d565b6108be81610628565b840191505092915050565b60006080820190506108de60008301876107c0565b81810360208301526108f08186610890565b90506108ff60408301856107c0565b61090c60608301846107c0565b95945050505050565b7f4e487b7100000000000000000000000000000000000000000000000000000000600052601160045260246000fd5b600061094f826105e8565b91507fffffffffffffffffffffffffffffffffffffffffffffffffffffffffffffffff82141561098257610981610915565b5b600182019050919050565b7f4e487b7100000000000000000000000000000000000000000000000000000000600052602260045260246000fd5b600060028204905060018216806109d457607f821691505b602082108114156109e8576109e761098d565b5b5091905056fea264697066735822122023074963e0ad8c00a8fe9a0813772c9ac5cdbd688756e2e1cac64ceb2edd800564736f6c634300080a0033",
  "immutableReferences": {},
  "source": "// SPDX-License-Identifier: MIT\r\npragma solidity >=0.4.22 <0.9.0;\r\n\r\nimport \"../helpers/BaseStorage.sol\";\r\n\r\ncontract TweetStorage is BaseStorage {\r\n    struct Tweet {\r\n        uint id;\r\n        string content;\r\n        uint userId;\r\n        uint timestamp;\r\n    }\r\n\r\n    mapping(uint => Tweet) public tweets;\r\n     // commenting getTweet function, as public in  tweets does same\r\n    // function getTweet(uint id) public view returns (string) {\r\n    //     return tweets[id].content;\r\n    // }\r\n    uint latestTweetId = 0;\r\n    function createTweet(uint _userId, string memory _text) public onlyController returns (uint) {\r\n      latestTweetId++;\r\n      tweets[latestTweetId] = Tweet(latestTweetId, _text, _userId, block.timestamp);\r\n      return latestTweetId;\r\n    }\r\n}",
  "sourcePath": "C:\\Users\\tawseef.bhat\\Desktop\\web3\\tweether\\contracts\\tweets\\TweetStorage.sol",
  "compiler": {
    "name": "solc",
    "version": "0.8.10+commit.fc410830.Emscripten.clang"
  },
  "schemaVersion": "3.4.3",
  "updatedAt": "2021-12-14T13:01:11.843Z",
  "networkType": "ethereum",
  "devdoc": {
    "kind": "dev",
    "methods": {},
    "version": 1
  },
  "userdoc": {
    "kind": "user",
    "methods": {},
    "version": 1
  }
}