{
  "contractName": "TweetController",
  "abi": [
    {
      "inputs": [],
      "name": "ownerAddr",
      "outputs": [
        {
          "internalType": "address",
          "name": "",
          "type": "address"
        }
      ],
      "stateMutability": "view",
      "type": "function",
      "constant": true
    },
    {
      "inputs": [
        {
          "internalType": "address",
          "name": "_managerAddr",
          "type": "address"
        }
      ],
      "name": "setManagerAddr",
      "outputs": [],
      "stateMutability": "nonpayable",
      "type": "function"
    },
    {
      "inputs": [
        {
          "internalType": "address",
          "name": "_newOwner",
          "type": "address"
        }
      ],
      "name": "transferOwnership",
      "outputs": [],
      "stateMutability": "nonpayable",
      "type": "function"
    },
    {
      "inputs": [
        {
          "internalType": "uint256",
          "name": "_userId",
          "type": "uint256"
        },
        {
          "internalType": "string",
          "name": "_text",
          "type": "string"
        }
      ],
      "name": "createTweet",
      "outputs": [
        {
          "internalType": "uint256",
          "name": "",
          "type": "uint256"
        }
      ],
      "stateMutability": "nonpayable",
      "type": "function"
    }
  ],
  "bytecode": "0x608060405234801561001057600080fd5b50336000806101000a81548173ffffffffffffffffffffffffffffffffffffffff021916908373ffffffffffffffffffffffffffffffffffffffff160217905550610847806100606000396000f3fe608060405234801561001057600080fd5b506004361061004c5760003560e01c80637978b231146100515780637cc82f201461006d5780639c675eaa1461009d578063f2fde38b146100bb575b600080fd5b61006b60048036038101906100669190610410565b6100d7565b005b610087600480360381019061008291906105b9565b610173565b6040516100949190610624565b60405180910390f35b6100a56102a5565b6040516100b2919061064e565b60405180910390f35b6100d560048036038101906100d09190610410565b6102c9565b005b60008054906101000a900473ffffffffffffffffffffffffffffffffffffffff1673ffffffffffffffffffffffffffffffffffffffff163373ffffffffffffffffffffffffffffffffffffffff161461012f57600080fd5b80600160006101000a81548173ffffffffffffffffffffffffffffffffffffffff021916908373ffffffffffffffffffffffffffffffffffffffff16021790555050565b600080600160009054906101000a900473ffffffffffffffffffffffffffffffffffffffff16905060008173ffffffffffffffffffffffffffffffffffffffff1663bf40fac16040518163ffffffff1660e01b81526004016101d4906106c6565b602060405180830381865afa1580156101f1573d6000803e3d6000fd5b505050506040513d601f19601f8201168201806040525081019061021591906106fb565b905060008190508073ffffffffffffffffffffffffffffffffffffffff16637cc82f2087876040518363ffffffff1660e01b815260040161025792919061079f565b6020604051808303816000875af1158015610276573d6000803e3d6000fd5b505050506040513d601f19601f8201168201806040525081019061029a91906107e4565b935050505092915050565b60008054906101000a900473ffffffffffffffffffffffffffffffffffffffff1681565b60008054906101000a900473ffffffffffffffffffffffffffffffffffffffff1673ffffffffffffffffffffffffffffffffffffffff163373ffffffffffffffffffffffffffffffffffffffff161461032157600080fd5b600073ffffffffffffffffffffffffffffffffffffffff168173ffffffffffffffffffffffffffffffffffffffff16141561035b57600080fd5b806000806101000a81548173ffffffffffffffffffffffffffffffffffffffff021916908373ffffffffffffffffffffffffffffffffffffffff16021790555050565b6000604051905090565b600080fd5b600080fd5b600073ffffffffffffffffffffffffffffffffffffffff82169050919050565b60006103dd826103b2565b9050919050565b6103ed816103d2565b81146103f857600080fd5b50565b60008135905061040a816103e4565b92915050565b600060208284031215610426576104256103a8565b5b6000610434848285016103fb565b91505092915050565b6000819050919050565b6104508161043d565b811461045b57600080fd5b50565b60008135905061046d81610447565b92915050565b600080fd5b600080fd5b6000601f19601f8301169050919050565b7f4e487b7100000000000000000000000000000000000000000000000000000000600052604160045260246000fd5b6104c68261047d565b810181811067ffffffffffffffff821117156104e5576104e461048e565b5b80604052505050565b60006104f861039e565b905061050482826104bd565b919050565b600067ffffffffffffffff8211156105245761052361048e565b5b61052d8261047d565b9050602081019050919050565b82818337600083830152505050565b600061055c61055784610509565b6104ee565b90508281526020810184848401111561057857610577610478565b5b61058384828561053a565b509392505050565b600082601f8301126105a05761059f610473565b5b81356105b0848260208601610549565b91505092915050565b600080604083850312156105d0576105cf6103a8565b5b60006105de8582860161045e565b925050602083013567ffffffffffffffff8111156105ff576105fe6103ad565b5b61060b8582860161058b565b9150509250929050565b61061e8161043d565b82525050565b60006020820190506106396000830184610615565b92915050565b610648816103d2565b82525050565b6000602082019050610663600083018461063f565b92915050565b600082825260208201905092915050565b7f547765657453746f726167650000000000000000000000000000000000000000600082015250565b60006106b0600c83610669565b91506106bb8261067a565b602082019050919050565b600060208201905081810360008301526106df816106a3565b9050919050565b6000815190506106f5816103e4565b92915050565b600060208284031215610711576107106103a8565b5b600061071f848285016106e6565b91505092915050565b600081519050919050565b60005b83811015610751578082015181840152602081019050610736565b83811115610760576000848401525b50505050565b600061077182610728565b61077b8185610669565b935061078b818560208601610733565b6107948161047d565b840191505092915050565b60006040820190506107b46000830185610615565b81810360208301526107c68184610766565b90509392505050565b6000815190506107de81610447565b92915050565b6000602082840312156107fa576107f96103a8565b5b6000610808848285016107cf565b9150509291505056fea264697066735822122039d9bf3a2983582ebd075e93ff1b704cfbe4a9b69a0918173212ebcc63ad7ff064736f6c634300080a0033",
  "immutableReferences": {},
  "source": "// SPDX-License-Identifier: MIT\r\npragma solidity >=0.4.22 <0.9.0;\r\nimport '../helpers/BaseController.sol';\r\nimport '../ContractManager.sol';\r\nimport './TweetStorage.sol';\r\n\r\ncontract TweetController is BaseController {\r\n\r\n  function createTweet(uint _userId, string memory _text) public returns(uint) {\r\n    ContractManager _manager = ContractManager(managerAddr);\r\n\r\n    address _tweetStorageAddr = _manager.getAddress(\"TweetStorage\");\r\n    TweetStorage _tweetStorage = TweetStorage(_tweetStorageAddr);\r\n\r\n    return _tweetStorage.createTweet(_userId, _text);\r\n  }\r\n\r\n}",
  "sourcePath": "C:\\Users\\tawseef.bhat\\Desktop\\web3\\tweether\\contracts\\tweets\\TweetController.sol",
  "compiler": {
    "name": "solc",
    "version": "0.8.10+commit.fc410830.Emscripten.clang"
  },
  "schemaVersion": "3.4.3",
  "updatedAt": "2021-12-22T04:29:25.699Z",
  "networkType": "ethereum",
  "devdoc": {
    "kind": "dev",
    "methods": {},
    "version": 1
  },
  "userdoc": {
    "kind": "user",
    "methods": {},
    "version": 1
  }
}