{
  "contractName": "UserController",
  "abi": [
    {
      "inputs": [],
      "name": "ownerAddr",
      "outputs": [
        {
          "internalType": "address",
          "name": "",
          "type": "address"
        }
      ],
      "stateMutability": "view",
      "type": "function",
      "constant": true
    },
    {
      "inputs": [
        {
          "internalType": "address",
          "name": "_managerAddr",
          "type": "address"
        }
      ],
      "name": "setManagerAddr",
      "outputs": [],
      "stateMutability": "nonpayable",
      "type": "function"
    },
    {
      "inputs": [
        {
          "internalType": "address",
          "name": "_newOwner",
          "type": "address"
        }
      ],
      "name": "transferOwnership",
      "outputs": [],
      "stateMutability": "nonpayable",
      "type": "function"
    },
    {
      "inputs": [
        {
          "internalType": "bytes32",
          "name": "_username",
          "type": "bytes32"
        },
        {
          "internalType": "bytes32",
          "name": "_firstName",
          "type": "bytes32"
        },
        {
          "internalType": "bytes32",
          "name": "_lastName",
          "type": "bytes32"
        },
        {
          "internalType": "string",
          "name": "_bio",
          "type": "string"
        },
        {
          "internalType": "string",
          "name": "_gravatarEmail",
          "type": "string"
        }
      ],
      "name": "createUser",
      "outputs": [
        {
          "internalType": "uint256",
          "name": "",
          "type": "uint256"
        }
      ],
      "stateMutability": "nonpayable",
      "type": "function"
    }
  ],
  "bytecode": "0x608060405234801561001057600080fd5b50336000806101000a81548173ffffffffffffffffffffffffffffffffffffffff021916908373ffffffffffffffffffffffffffffffffffffffff160217905550610a3f806100606000396000f3fe608060405234801561001057600080fd5b506004361061004c5760003560e01c80637978b231146100515780639c675eaa1461006d578063f2fde38b1461008b578063f901175b146100a7575b600080fd5b61006b60048036038101906100669190610527565b6100d7565b005b610075610173565b6040516100829190610563565b60405180910390f35b6100a560048036038101906100a09190610527565b610197565b005b6100c160048036038101906100bc91906106fa565b61026c565b6040516100ce91906107c6565b60405180910390f35b60008054906101000a900473ffffffffffffffffffffffffffffffffffffffff1673ffffffffffffffffffffffffffffffffffffffff163373ffffffffffffffffffffffffffffffffffffffff161461012f57600080fd5b80600160006101000a81548173ffffffffffffffffffffffffffffffffffffffff021916908373ffffffffffffffffffffffffffffffffffffffff16021790555050565b60008054906101000a900473ffffffffffffffffffffffffffffffffffffffff1681565b60008054906101000a900473ffffffffffffffffffffffffffffffffffffffff1673ffffffffffffffffffffffffffffffffffffffff163373ffffffffffffffffffffffffffffffffffffffff16146101ef57600080fd5b600073ffffffffffffffffffffffffffffffffffffffff168173ffffffffffffffffffffffffffffffffffffffff16141561022957600080fd5b806000806101000a81548173ffffffffffffffffffffffffffffffffffffffff021916908373ffffffffffffffffffffffffffffffffffffffff16021790555050565b600080600160009054906101000a900473ffffffffffffffffffffffffffffffffffffffff16905060008173ffffffffffffffffffffffffffffffffffffffff1663bf40fac16040518163ffffffff1660e01b81526004016102cd9061083e565b602060405180830381865afa1580156102ea573d6000803e3d6000fd5b505050506040513d601f19601f8201168201806040525081019061030e9190610873565b9050600081905060008173ffffffffffffffffffffffffffffffffffffffff166382d38954336040518263ffffffff1660e01b81526004016103509190610563565b602060405180830381865afa15801561036d573d6000803e3d6000fd5b505050506040513d601f19601f8201168201806040525081019061039191906108cc565b1461039b57600080fd5b60008173ffffffffffffffffffffffffffffffffffffffff1663ec4d88d78b6040518263ffffffff1660e01b81526004016103d69190610908565b602060405180830381865afa1580156103f3573d6000803e3d6000fd5b505050506040513d601f19601f8201168201806040525081019061041791906108cc565b1461042157600080fd5b8073ffffffffffffffffffffffffffffffffffffffff1663d399e63d338b8b8b8b8b6040518763ffffffff1660e01b81526004016104649695949392919061099a565b6020604051808303816000875af1158015610483573d6000803e3d6000fd5b505050506040513d601f19601f820116820180604052508101906104a791906108cc565b935050505095945050505050565b6000604051905090565b600080fd5b600080fd5b600073ffffffffffffffffffffffffffffffffffffffff82169050919050565b60006104f4826104c9565b9050919050565b610504816104e9565b811461050f57600080fd5b50565b600081359050610521816104fb565b92915050565b60006020828403121561053d5761053c6104bf565b5b600061054b84828501610512565b91505092915050565b61055d816104e9565b82525050565b60006020820190506105786000830184610554565b92915050565b6000819050919050565b6105918161057e565b811461059c57600080fd5b50565b6000813590506105ae81610588565b92915050565b600080fd5b600080fd5b6000601f19601f8301169050919050565b7f4e487b7100000000000000000000000000000000000000000000000000000000600052604160045260246000fd5b610607826105be565b810181811067ffffffffffffffff82111715610626576106256105cf565b5b80604052505050565b60006106396104b5565b905061064582826105fe565b919050565b600067ffffffffffffffff821115610665576106646105cf565b5b61066e826105be565b9050602081019050919050565b82818337600083830152505050565b600061069d6106988461064a565b61062f565b9050828152602081018484840111156106b9576106b86105b9565b5b6106c484828561067b565b509392505050565b600082601f8301126106e1576106e06105b4565b5b81356106f184826020860161068a565b91505092915050565b600080600080600060a08688031215610716576107156104bf565b5b60006107248882890161059f565b95505060206107358882890161059f565b94505060406107468882890161059f565b935050606086013567ffffffffffffffff811115610767576107666104c4565b5b610773888289016106cc565b925050608086013567ffffffffffffffff811115610794576107936104c4565b5b6107a0888289016106cc565b9150509295509295909350565b6000819050919050565b6107c0816107ad565b82525050565b60006020820190506107db60008301846107b7565b92915050565b600082825260208201905092915050565b7f5573657253746f72616765000000000000000000000000000000000000000000600082015250565b6000610828600b836107e1565b9150610833826107f2565b602082019050919050565b600060208201905081810360008301526108578161081b565b9050919050565b60008151905061086d816104fb565b92915050565b600060208284031215610889576108886104bf565b5b60006108978482850161085e565b91505092915050565b6108a9816107ad565b81146108b457600080fd5b50565b6000815190506108c6816108a0565b92915050565b6000602082840312156108e2576108e16104bf565b5b60006108f0848285016108b7565b91505092915050565b6109028161057e565b82525050565b600060208201905061091d60008301846108f9565b92915050565b600081519050919050565b60005b8381101561094c578082015181840152602081019050610931565b8381111561095b576000848401525b50505050565b600061096c82610923565b61097681856107e1565b935061098681856020860161092e565b61098f816105be565b840191505092915050565b600060c0820190506109af6000830189610554565b6109bc60208301886108f9565b6109c960408301876108f9565b6109d660608301866108f9565b81810360808301526109e88185610961565b905081810360a08301526109fc8184610961565b905097965050505050505056fea264697066735822122048b8be9b7763887b49d48f5ead18294bb7bb30666f71b195dbed4e61dde643d864736f6c634300080a0033",
  "immutableReferences": {},
  "source": "// SPDX-License-Identifier: MIT\r\npragma solidity >=0.4.22 <0.9.0;\r\nimport \"../helpers/BaseController.sol\";\r\nimport \"../ContractManager.sol\";\r\nimport \"./UserStorage.sol\";\r\n\r\ncontract UserController is BaseController {\r\n    function createUser(\r\n        bytes32 _username,\r\n        bytes32 _firstName,\r\n        bytes32 _lastName,\r\n        string memory _bio,\r\n        string memory _gravatarEmail\r\n    ) public returns (uint) {\r\n        ContractManager _manager = ContractManager(managerAddr);\r\n        address _userStorageAddr = _manager.getAddress(\"UserStorage\");\r\n        UserStorage _storage = UserStorage(_userStorageAddr); \r\n        require(_storage.addresses(msg.sender) == 0);\r\n        require(_storage.usernames(_username) == 0);\r\n        // console.log(\"Creating user: \" ,_username, msg.sender);\r\n        return _storage.createUser(\r\n            msg.sender,\r\n          _username, \r\n          _firstName,\r\n          _lastName,\r\n          _bio,\r\n        _gravatarEmail\r\n        );\r\n    }\r\n}",
  "sourcePath": "C:\\Users\\tawseef.bhat\\Desktop\\web3\\tweether\\contracts\\users\\UserController.sol",
  "compiler": {
    "name": "solc",
    "version": "0.8.10+commit.fc410830.Emscripten.clang"
  },
  "schemaVersion": "3.4.3",
  "updatedAt": "2021-12-25T05:05:44.982Z",
  "networkType": "ethereum",
  "devdoc": {
    "kind": "dev",
    "methods": {},
    "version": 1
  },
  "userdoc": {
    "kind": "user",
    "methods": {},
    "version": 1
  }
}