{
  "contractName": "UserController",
  "abi": [
    {
      "inputs": [],
      "name": "ownerAddr",
      "outputs": [
        {
          "internalType": "address",
          "name": "",
          "type": "address"
        }
      ],
      "stateMutability": "view",
      "type": "function",
      "constant": true
    },
    {
      "inputs": [
        {
          "internalType": "address",
          "name": "_managerAddr",
          "type": "address"
        }
      ],
      "name": "setManagerAddr",
      "outputs": [],
      "stateMutability": "nonpayable",
      "type": "function"
    },
    {
      "inputs": [
        {
          "internalType": "address",
          "name": "_newOwner",
          "type": "address"
        }
      ],
      "name": "transferOwnership",
      "outputs": [],
      "stateMutability": "nonpayable",
      "type": "function"
    },
    {
      "inputs": [
        {
          "internalType": "bytes32",
          "name": "_username",
          "type": "bytes32"
        }
      ],
      "name": "createUser",
      "outputs": [
        {
          "internalType": "uint256",
          "name": "",
          "type": "uint256"
        }
      ],
      "stateMutability": "nonpayable",
      "type": "function"
    }
  ],
  "bytecode": "0x608060405234801561001057600080fd5b50336000806101000a81548173ffffffffffffffffffffffffffffffffffffffff021916908373ffffffffffffffffffffffffffffffffffffffff160217905550610664806100606000396000f3fe608060405234801561001057600080fd5b506004361061004c5760003560e01c80637978b231146100515780639c675eaa1461006d578063abf7bfd81461008b578063f2fde38b146100bb575b600080fd5b61006b600480360381019061006691906103fe565b6100d7565b005b610075610173565b604051610082919061043a565b60405180910390f35b6100a560048036038101906100a0919061048b565b610197565b6040516100b291906104d1565b60405180910390f35b6100d560048036038101906100d091906103fe565b6102c6565b005b60008054906101000a900473ffffffffffffffffffffffffffffffffffffffff1673ffffffffffffffffffffffffffffffffffffffff163373ffffffffffffffffffffffffffffffffffffffff161461012f57600080fd5b80600160006101000a81548173ffffffffffffffffffffffffffffffffffffffff021916908373ffffffffffffffffffffffffffffffffffffffff16021790555050565b60008054906101000a900473ffffffffffffffffffffffffffffffffffffffff1681565b600080600160009054906101000a900473ffffffffffffffffffffffffffffffffffffffff16905060008173ffffffffffffffffffffffffffffffffffffffff1663bf40fac16040518163ffffffff1660e01b81526004016101f890610549565b602060405180830381865afa158015610215573d6000803e3d6000fd5b505050506040513d601f19601f82011682018060405250810190610239919061057e565b905060008190508073ffffffffffffffffffffffffffffffffffffffff1663abf7bfd8866040518263ffffffff1660e01b815260040161027991906105ba565b6020604051808303816000875af1158015610298573d6000803e3d6000fd5b505050506040513d601f19601f820116820180604052508101906102bc9190610601565b9350505050919050565b60008054906101000a900473ffffffffffffffffffffffffffffffffffffffff1673ffffffffffffffffffffffffffffffffffffffff163373ffffffffffffffffffffffffffffffffffffffff161461031e57600080fd5b600073ffffffffffffffffffffffffffffffffffffffff168173ffffffffffffffffffffffffffffffffffffffff16141561035857600080fd5b806000806101000a81548173ffffffffffffffffffffffffffffffffffffffff021916908373ffffffffffffffffffffffffffffffffffffffff16021790555050565b600080fd5b600073ffffffffffffffffffffffffffffffffffffffff82169050919050565b60006103cb826103a0565b9050919050565b6103db816103c0565b81146103e657600080fd5b50565b6000813590506103f8816103d2565b92915050565b6000602082840312156104145761041361039b565b5b6000610422848285016103e9565b91505092915050565b610434816103c0565b82525050565b600060208201905061044f600083018461042b565b92915050565b6000819050919050565b61046881610455565b811461047357600080fd5b50565b6000813590506104858161045f565b92915050565b6000602082840312156104a1576104a061039b565b5b60006104af84828501610476565b91505092915050565b6000819050919050565b6104cb816104b8565b82525050565b60006020820190506104e660008301846104c2565b92915050565b600082825260208201905092915050565b7f5573657253746f72616765000000000000000000000000000000000000000000600082015250565b6000610533600b836104ec565b915061053e826104fd565b602082019050919050565b6000602082019050818103600083015261056281610526565b9050919050565b600081519050610578816103d2565b92915050565b6000602082840312156105945761059361039b565b5b60006105a284828501610569565b91505092915050565b6105b481610455565b82525050565b60006020820190506105cf60008301846105ab565b92915050565b6105de816104b8565b81146105e957600080fd5b50565b6000815190506105fb816105d5565b92915050565b6000602082840312156106175761061661039b565b5b6000610625848285016105ec565b9150509291505056fea26469706673582212203451d8ace9c4699f266f9673b77510f5acaf3d1737cb94ef3d16efb4c2f85b5964736f6c634300080a0033",
  "immutableReferences": {},
  "source": "// SPDX-License-Identifier: MIT\r\npragma solidity >=0.4.22 <0.9.0;\r\nimport \"../helpers/BaseController.sol\";\r\nimport \"../ContractManager.sol\";\r\nimport \"./UserStorage.sol\";\r\n\r\ncontract UserController is BaseController {\r\n    function createUser(bytes32 _username) public returns (uint) {\r\n        ContractManager _manager = ContractManager(managerAddr);\r\n        address _userStorageAddr = _manager.getAddress(\"UserStorage\");\r\n       UserStorage _userStorage = UserStorage(_userStorageAddr); \r\n\r\n      return _userStorage.createUser(_username);\r\n    }\r\n}",
  "sourcePath": "C:\\Users\\tawseef.bhat\\Desktop\\web3\\tweether\\contracts\\users\\UserController.sol",
  "compiler": {
    "name": "solc",
    "version": "0.8.10+commit.fc410830.Emscripten.clang"
  },
  "schemaVersion": "3.4.3",
  "updatedAt": "2021-12-12T16:28:37.900Z",
  "networkType": "ethereum",
  "devdoc": {
    "kind": "dev",
    "methods": {},
    "version": 1
  },
  "userdoc": {
    "kind": "user",
    "methods": {},
    "version": 1
  }
}